:020000020000FC
:0200000093C1AA
:1000340011C100E400937C0005EE00937A000027D0
:1000440000937B00089500270093840000938500AB
:100054000CE00093810000E80093800001E11AE7BE
:10006400009388001093890000916F000160009351
:100074006F000895EF93FF930F931F932F933F9374
:1000840009ED009324010DE80093250100E012E03E
:1000940021E0E8E1F1E030912401309326010E944F
:1000A400760030912601309324014091250140933C
:1000B40026010E94760040912601409325013223B7
:1000C4004223440F342B011729F0319303950093F5
:1000D4002201E1CF0395009322013F912F911F91BB
:1000E4000F91FF91EF9108950F931F932F933F93D7
:1000F40001E012E02FE73091260103231323169524
:100104000127000F000F000F000F000F000F000F5A
:1001140036953223032B009326013F912F911F9193
:100124000F9108950F931F93009178001091790017
:10013400009326011F910F9108950F931F932F93FE
:100144003F934F93009122011091230141E043B961
:1001540019C00117B9F02D91203041F0213049F038
:10016400223051F00CC013951093230141E043B9A0
:1001740009C042E043B906C044E043B903C048E0C3
:1001840043B900C04F913F912F911F910F91189542
:100194000FE0332707B938B908950FE00AB9089575
:1001A400A2E0B1E008950027009384000093850045
:1001B40005E00093810008E8009380000BE716E057
:1001C400009388000093890001E000936F00089574
:1001D400CDE0D1E0089500910101023019F00E94B0
:1001E400F60008950E948E010027112721E032E0D5
:1001F40044E058E09191903031F0913031F09230F8
:1002040031F0933031F02D9306C03D9304C04D93EB
:1002140002C05D9300C01091010113951093010178
:1002240008957091170178B9772778B9089523173D
:1002340041F04D91409317010E9413012395F7CF8C
:100244000895089520E0309101010E94D2000E9497
:1002540019010895009100010F3FB9F09A17B9F000
:1002640001E012E024E038E049B1042314232423FC
:1002740034237727702B712B722B732B79939091E6
:100284000C01939590930C01E5CF002708950895F0
:100294000E94D2000E94EA0020E0309101010E94F5
:1002A4005301231729F04D915991451711F003C0BB
:1002B40008952395F6CF0E948E0108956F937F933E
:1002C4008F9350EA60E070E080E0639573958395C6
:1002D4008517E9F780E07517C9F770E06517A9F786
:1002E40060E08F917F916F9108956F937F938F93C7
:1002F40050EA60E070E080E063957395839585171C
:10030400E9F780E07517C9F770E06517A9F760E0B1
:100314008F917F916F9108950027009301010093BD
:100324000C013AC008E00EBF0FEF0DBF0E94CF00D2
:100334000E94CA000E94D2000E94D5000E94EA00D6
:100344000E941B000E9425000E943C00002700938D
:1003540023010093270178940FEF009300010027F5
:100364000093010100930C01E8E1F1E00E94ED002B
:100374000E9424010E94EA000027009300019927AB
:1003840090930C01A09101010E942C010E944A014A
:0A0394000FEF00930001EACFFFCF46
:00000001FF
