:020000020000FC
:020000009EC0A0
:100034004FC00FE0332707B938B908950FE00AB964
:100044000895A2E0B1E0089500270093840000938E
:10005400850005E00093810008E8009380000BE729
:1000640016E0009388000093890001E000936F007C
:100074000895CDE0D1E0089500910101003119F017
:100084000E94470008950E949C0000271127939521
:100094009D9310910101139510930101089570919E
:1000A400170178B9772778B90895231741F04D914E
:1000B400409317010E9451002395F7CF08950895A6
:1000C40020E0309101010E9423000E94570008950E
:1000D40001E012E024E038E049B10423142324238E
:1000E40034237727702B712B722B732B7D930E94F3
:1000F4003B00231739F04C9158814517D9F40E94DD
:100104007900089508956F937F938F9350EA60E088
:1001140070E080E06395739583958517E9F780E037
:100124007517C9F770E06517A9F760E08F917F91A3
:100134006F91089500270093010108E00EBF0FEFAF
:100144000DBF0E9420000E941B000E9423000E94F9
:1001540026000E943B0078940FEF0093000190E08A
:1001640000270093010100930C010E943E000E94AD
:060174006200FBCFFFCF8B
:00000001FF
